:100000000C9435000C945D000C945D000C945D0024
:100010000C945D000C945D000C945D000C945D00EC
:100020000C945D000C945D000C945D000C945D00DC
:100030000C945D000C945D000C945D000C945D00CC
:100040000C9447030C945D000C94B7030C9491033B
:100050000C945D000C945D000C945D000C945D00AC
:100060000C945D000C945D00050511241FBECFEFBC
:10007000D8E0DEBFCDBF21E0A6E3B1E001C01D9214
:10008000A03EB207E1F711E0A0E0B1E0EAE0FFE056
:1000900002C005900D92A633B107D9F710E0C5E371
:1000A000D0E004C02197FE010E948B05C433D10724
:1000B000C9F70E94E9030C9483070C94000008958B
:1000C0003FB7F8948091370190913801A0913901A0
:1000D000B0913A0126B5A89B05C02F3F19F00196B3
:1000E000A11DB11D3FBFBA2FA92F982F8827BC0192
:1000F000CD01620F711D811D911D42E0660F771FBA
:10010000881F991F4A95D1F70895AF92BF92CF9259
:10011000DF92EF92FF920F931F93CF93DF936C01C7
:100120007B018B01040F151FEB015E01AE18BF08A8
:10013000C017D10759F06991D601ED91FC9101905A
:10014000F081E02DC6010995892B79F7C501DF9172
:10015000CF911F910F91FF90EF90DF90CF90BF90C4
:10016000AF900895FC01538D448D252F30E0842FEE
:1001700090E0821B930B541710F0CF9608950197CF
:100180000895FC01918D828D981761F0A28DAE0FBC
:10019000BF2FB11D5D968C91928D9F5F9F73928F43
:1001A00090E008958FEF9FEF08952FB7F894809116
:1001B0003B0190913C01A0913D01B0913E012FBFC8
:1001C0008093470190934801A0934901B0934A015D
:1001D0008FE391E00E94C10097FF26C02FB7F894EB
:1001E00080913B0190913C01A0913D01B0913E0175
:1001F0002FBF409147015091480160914901709192
:100200004A01841B950BA60BB70B409143015091FB
:100210004401609145017091460184179507A60736
:10022000B707B0F28FEF9FEF0895FC01918D828D9B
:10023000981731F0828DE80FF11D858D90E00895BB
:100240008FEF9FEF0895FC01918D228D892F90E013
:10025000805C9F4F821B91098F73992708958FE3CC
:1002600091E00E94230121E0892B09F420E0822FF4
:10027000089580E090E0892B29F00E942F018111E0
:100280000C9400000895FC01A48DA80FB92FB11D96
:10029000A35ABF4F2C91848D90E001968F739927BC
:1002A000848FA689B7892C93A089B1898C9183709A
:1002B00080648C93938D848D981306C00288F38993
:1002C000E02D80818F7D80830895EF92FF920F93C0
:1002D0001F93CF93DF93EC0181E0888F9B8D8C8DF2
:1002E00098131AC0E889F989808185FF15C09FB7E6
:1002F000F894EE89FF896083E889F98980818370A9
:10030000806480839FBF81E090E0DF91CF911F9157
:100310000F91FF90EF900895F62E0B8D10E00F5F78
:100320001F4F0F731127E02E8C8D8E110CC00FB64E
:1003300007FCFACFE889F989808185FFF5CFCE01E6
:100340000E944301F1CFEB8DEC0FFD2FF11DE35A1D
:10035000FF4FF0829FB7F8940B8FEA89FB89808169
:100360008062CFCFCF93DF93EC01888D8823B9F0E3
:10037000AA89BB89E889F9898C9185FD03C08081B0
:1003800086FD0DC00FB607FCF7CF8C9185FFF2CF2D
:10039000808185FFEDCFCE010E944301E9CFDF913F
:1003A000CF9108958F929F92AF92BF920F931F9318
:1003B000CF93DF93CDB7DEB7A1970FB6F894DEBF2A
:1003C0000FBECDBF19A2423008F44AE08E010F5D86
:1003D0001F4F842E912CB12CA12CA50194010E94B9
:1003E0006905E62FB901CA01EA3044F5E05DD8019C
:1003F000EE938D01232B242B252B79F790E080E0C1
:10040000109769F0FD0101900020E9F73197AF01E5
:100410004A1B5B0BBD018FE391E00E948500A19612
:100420000FB6F894DEBF0FBECDBFDF91CF911F9105
:100430000F91BF90AF909F908F900895E95CD7CFB8
:10044000FC0180819181009711F00C942D06089594
:100450000F931F93CF93DF93EC01888199810097CD
:1004600059F02A813B812617370730F081E0DF9170
:10047000CF911F910F9108958B016F5F7F4F0E9465
:10048000B606009759F0998388831B830A832C81D1
:100490003D81232B59F7FC011082E8CF80E0E7CFA4
:1004A000EF92FF920F931F93CF93DF93EC017B01A9
:1004B000FB0101900020E9F731978F01061B170B14
:1004C000B8010E94280228813981811113C02115A9
:1004D000310519F0C9010E942D06198218821D826A
:1004E0001C821B821A82DF91CF911F910F91FF9086
:1004F000EF9008951D830C83B701C901DF91CF915F
:100500001F910F91FF90EF900C947C07CF92DF9298
:10051000EF92FF920F931F93CF93DF93CDB7DEB788
:1005200028970FB6F894DEBF0FBECDBF8C016B01CC
:100530007A01FC01118210821382128215821482C8
:1005400068E171E00E945002F701448155816081A9
:1005500071818FE391E00E9485000D2C000CEE0864
:10056000FF084AE0C701B601F7FE0DC06DE28FE358
:1005700091E00E94650166277727CB016C197D0900
:100580008E099F094AE00E94D20141E050E060E2FA
:1005900071E08FE391E00E9485001A8219821C822B
:1005A0001B821E821D8261E271E0CE0101960E94D3
:1005B00050020E94D50097FD1FC08A309105E1F0DE
:1005C0008F831886ED80FE80FFEFEF1AFF0AB701D8
:1005D000CE0101960E942802882359F329813A818D
:1005E0008D819E81BE01695F7F4F820F931F0E94A4
:1005F0007C07FE82ED82DDCFF8018081918100973A
:10060000A1F169817A816115710569F14281538196
:100610002D813E814217530730F10E947C078D8166
:100620009E81F801958384831E821D82CE010196EE
:100630000E942002F80144815581608171818FE31D
:1006400091E00E948500C80128960FB6F894DEBF9D
:100650000FBECDBFDF91CF911F910F91FF90EF9013
:10066000DF90CF9008950E942D0689819A81F8012C
:10067000918380838B819C81938382838D819E81F2
:10068000958384831A8219821C821B82CDCF1F928C
:100690000F920FB60F9211242F933F938F939F9336
:1006A000AF93BF9380913B0190913C01A0913D019C
:1006B000B0913E013091360123E0230F2D3758F5DC
:1006C0000196A11DB11D2093360180933B019093AB
:1006D0003C01A0933D01B0933E0180913701909180
:1006E0003801A0913901B0913A010196A11DB11DC7
:1006F0008093370190933801A0933901B0933A0168
:10070000BF91AF919F918F913F912F910F900FBE0D
:100710000F901F90189526E8230F0296A11DB11D7A
:10072000D2CF1F920F920FB60F9211242F933F93A7
:100730004F935F936F937F938F939F93AF93BF93E9
:10074000EF93FF938FE391E00E944301FF91EF91BC
:10075000BF91AF919F918F917F916F915F914F91D9
:100760003F912F910F900FBE0F901F9018951F92E1
:100770000F920FB60F9211242F938F939F93EF93A5
:10078000FF93E0914F01F09150018081E09155017C
:10079000F091560182FD1BC09081809158018F5FBE
:1007A0008F7320915901821741F0E0915801F0E0D8
:1007B000E15CFE4F958F80935801FF91EF919F91DF
:1007C0008F912F910F900FBE0F901F9018958081E1
:1007D000F4CFCF93DF93CDB7DEB76A970FB6F89417
:1007E000DEBF0FBECDBF789484B5826084BD84B572
:1007F000816084BD85B5826085BD85B5816085BD1C
:1008000080916E00816080936E00109281008091D3
:10081000810082608093810080918100816080935B
:100820008100809180008160809380008091B10080
:1008300084608093B1008091B00081608093B000AB
:1008400080917A00846080937A0080917A0082603F
:1008500080937A0080917A00816080937A00809101
:100860007A00806880937A001092C100E0914F0175
:10087000F091500182E08083E0914B01F0914C01B6
:100880001082E0914D01F0914E018FEC8083109227
:100890005701E0915301F091540186E08083E0918B
:1008A0005101F0915201808180618083E09151017A
:1008B000F0915201808188608083E0915101F09134
:1008C0005201808180688083E0915101F091520152
:1008D00080818F7D808307E010E090E0A92E90E07A
:1008E000B92E1A8219821C821B821E821D826CE024
:1008F00070E0CE0101960E94280229813A8181117F
:1009000070C02115310519F0C9010E942D061A8207
:1009100019821E821D821C821B8218870F83188AEF
:100920001F861A8A198A1C8A1B8A66E070E0CE012B
:100930000F960E9428022F85388981115CC02115ED
:10094000310519F0C9010E942D06188A1F861C8ADC
:100950001B8A1A8A198A6F817885AE01415F5F4FC1
:10096000CE0145960E948602CE010F960E9420027B
:10097000CE0145960E9420020E9460002B013C019E
:1009800088EBC82E8BE0D82EE12CF12C0E94600061
:100990006419750986099709683E734081059105B8
:1009A000A8F321E0C21AD108E108F10888EE480E48
:1009B00083E0581E611C711CC114D104E104F104D0
:1009C00029F7CE0101960E942002A114B10409F476
:1009D00088CF0E942F01882309F483CF0E94000052
:1009E00080CF8CE090E09E838D8362E271E0C9014C
:1009F0000E947C0792CF86E090E09C8B8B8B6FE20D
:100A000071E0C9010E947C07A6CFEFE3F1E01382F9
:100A1000128288EE93E0A0E0B0E084839583A68301
:100A2000B7838AE091E09183808385EC90E095879D
:100A3000848784EC90E09787868780EC90E0918BA8
:100A4000808B81EC90E0938B828B82EC90E0958B95
:100A5000848B86EC90E0978B868B118E128E138E92
:100A6000148E08952F923F924F925F926F927F92D1
:100A70008F929F92AF92BF92CF92DF92EF92FF92AE
:100A80000F931F93CF93DF93CDB7DEB7CA1BDB0B5A
:100A90000FB6F894DEBF0FBECDBF09942A883988FF
:100AA00048885F846E847D848C849B84AA84B98406
:100AB000C884DF80EE80FD800C811B81AA81B98112
:100AC000CE0FD11D0FB6F894DEBF0FBECDBFED0126
:100AD0000895A1E21A2EAA1BBB1BFD010DC0AA1F7F
:100AE000BB1FEE1FFF1FA217B307E407F50720F097
:100AF000A21BB30BE40BF50B661F771F881F991F12
:100B00001A9469F760957095809590959B01AC015A
:100B1000BD01CF010895EE0FFF1F0590F491E02D68
:100B200009940F931F93CF93DF938230910510F4B4
:100B300082E090E0E091DE01F091DF0130E020E022
:100B4000B0E0A0E0309799F42115310509F44AC0CE
:100B5000281B390B24303105D8F58A819B8161151A
:100B6000710589F1FB0193838283FE0111C04081ED
:100B700051810281138148175907E0F0481759073E
:100B800099F4109761F012960C93129713961C9398
:100B90003296CF01DF91CF911F910F91089500936D
:100BA000DE011093DF01F4CF2115310551F042171A
:100BB000530738F0A901DB019A01BD01DF01F801FB
:100BC000C1CFEF01F9CF9093DF018093DE01CDCF4C
:100BD000FE01E20FF31F8193919322503109398373
:100BE0002883D7CF2091DC013091DD01232B41F404
:100BF00020910201309103013093DD012093DC014B
:100C000020910001309101012115310541F42DB7EA
:100C10003EB74091040150910501241B350BE09132
:100C2000DC01F091DD01E217F307A0F42E1B3F0B6E
:100C30002817390778F0AC014E5F5F4F241735074E
:100C400048F04E0F5F1F5093DD014093DC0181930C
:100C500091939FCFF0E0E0E09CCFCF93DF9300979C
:100C6000E9F0FC01329713821282A091DE01B0916B
:100C7000DF01ED0130E020E01097A1F42081318107
:100C8000820F931F2091DC013091DD012817390775
:100C900009F061C0F093DD01E093DC01DF91CF91B9
:100CA0000895EA01CE17DF07E8F54A815B819E01CE
:100CB00041155105B1F7E901FB83EA834991599147
:100CC000C40FD51FEC17FD0761F480819181029656
:100CD000840F951FE90199838883828193819B8387
:100CE0008A83F0E0E0E012968D919C911397009733
:100CF000B9F52D913C911197CD010296820F931F6A
:100D00002091DC013091DD012817390739F6309741
:100D100051F51092DF011092DE01B093DD01A09336
:100D2000DC01BCCFD383C28340815181840F951FE6
:100D3000C817D90761F44E5F5F4F88819981480FCA
:100D4000591F518340838A819B819383828321151C
:100D5000310509F0B0CFF093DF01E093DE019ECFC3
:100D6000FD01DC01C0CF13821282D7CFB0E0A0E03A
:100D7000ECEBF6E00C9434058C01009751F4CB01B8
:100D80000E9491058C01C801CDB7DEB7E0E10C945B
:100D90005005FC01E60FF71F9C0122503109E217B4
:100DA000F30708F49DC0D901CD91DC911197C617C6
:100DB000D70798F0C530D10530F3CE0104978617D8
:100DC000970708F3C61BD70B2297C193D1936D9356
:100DD0007C93CF010E942D06D6CF5B01AC1ABD0AD1
:100DE0004C018C0E9D1EA091DE01B091DF01512CB3
:100DF000412CF12CE12C109731F58091DC01909180
:100E0000DD018815990509F05CC04616570608F003
:100E100058C08091000190910101009741F48DB775
:100E20009EB74091040150910501841B950BE81772
:100E3000F90708F055C0F093DD01E093DC01F901FA
:100E400071836083A0CF8D919C91119712966C90C5
:100E5000129713967C901397A815B90559F56C0154
:100E600042E0C40ED11CCA14DB0420F1AC014A19C3
:100E70005B09DA011296159780F0628273825183C2
:100E80004083D9016D937C93E114F10471F0D70193
:100E90001396FC93EE93129776CF22968C0F9D1F9C
:100EA000F90191838083F301EFCFF093DF01E093A9
:100EB000DE0169CF4816590608F42C017D01D301E3
:100EC0009ACFCB010E9491057C01009749F0AE01B9
:100ED000B8010E947307C8010E942D06870153CFF5
:100EE00010E000E050CFFB01DC0102C001900D9248
:100EF00041505040D8F70895FB01DC0101900D925C
:0A0F00000020E1F70895F894FFCFF8
:100F0A000000E00180000000000065018500B200D9
:100F1A00B2012301C100150177616974696E670026
:100F2A000A002F6465762F74747941434D3000703E
:060F3A00685F6C6F6700A8
:00000001FF
