:100000000C9435000C945D000C945D000C945D0024
:100010000C945D000C945D000C945D000C945D00EC
:100020000C945D000C945D000C945D000C945D00DC
:100030000C945D000C945D000C945D000C945D00CC
:100040000C94D2020C945D000C9442030C941C039B
:100050000C945D000C945D000C945D000C945D00AC
:100060000C945D000C945D00740311241FBECFEF4F
:10007000D8E0DEBFCDBF21E0A4E3B1E001C01D9216
:10008000A03FB207E1F711E0A0E0B1E0E8E0F2E163
:1000900002C005900D92A433B107D9F710E0C5E373
:1000A000D0E004C02197FE010E941C06C433D10792
:1000B000C9F70E94C7030C9402090C9400003FB7D3
:1000C000F8948091350190913601A0913701B0915B
:1000D000380126B5A89B05C02F3F19F00196A11D38
:1000E000B11D3FBFBA2FA92F982F8827BC01CD0182
:1000F000620F711D811D911D42E0660F771F881FE1
:10010000991F4A95D1F70895AF92BF92CF92DF928F
:10011000EF92FF920F931F93CF93DF936C017B01BC
:100120008B01040F151FEB015E01AE18BF08C0174D
:10013000D10759F06991D601ED91FC910190F081C0
:10014000E02DC6010995892B79F7C501DF91CF9183
:100150001F910F91FF90EF90DF90CF90BF90AF90E5
:100160000895FC01538D448D252F30E0842F90E0BD
:10017000821B930B541710F0CF96089501970895A2
:10018000FC01918D828D981761F0A28DAE0FBF2F6B
:10019000B11D5D968C91928D9F5F9F73928F90E0C1
:1001A00008958FEF9FEF08952FB7F894809139014C
:1001B00090913A01A0913B01B0913C012FBF8093F7
:1001C000450190934601A0934701B09348018DE308
:1001D00091E00E94C00097FF26C02FB7F89480914D
:1001E000390190913A01A0913B01B0913C012FBFA0
:1001F000409145015091460160914701709148013D
:10020000841B950BA60BB70B409141015091420105
:10021000609143017091440184179507A607B707C1
:10022000B0F28FEF9FEF0895FC01918D828D9817AA
:1002300031F0828DE80FF11D858D90E008958FEFEC
:100240009FEF0895FC01918D228D892F90E0805CB5
:100250009F4F821B91098F73992708958DE391E039
:100260000E94220121E0892B09F420E0822F0895C9
:1002700080E090E0892B29F00E942E0181110C94DE
:1002800000000895FC01A48DA80FB92FB11DA35A39
:10029000BF4F2C91848D90E001968F739927848FA6
:1002A000A689B7892C93A089B1898C9183708064C9
:1002B0008C93938D848D981306C00288F389E02D6A
:1002C00080818F7D80830895EF92FF920F931F931B
:1002D000CF93DF93EC0181E0888F9B8D8C8D9813F9
:1002E0001AC0E889F989808185FF15C09FB7F89405
:1002F000EE89FF896083E889F98980818370806451
:1003000080839FBF81E090E0DF91CF911F910F919B
:10031000FF90EF900895F62E0B8D10E00F5F1F4FAA
:100320000F731127E02E8C8D8E110CC00FB607FCB9
:10033000FACFE889F989808185FFF5CFCE010E9447
:100340004201F1CFEB8DEC0FFD2FF11DE35AFF4F72
:10035000F0829FB7F8940B8FEA89FB8980818062D5
:10036000CFCFCF93DF93EC01888D8823B9F0AA8992
:10037000BB89E889F9898C9185FD03C0808186FD60
:100380000DC00FB607FCF7CF8C9185FFF2CF8081AF
:1003900085FFEDCFCE010E944201E9CFDF91CF91E1
:1003A0000895CF92DF92EF92FF920F931F93CF9316
:1003B000DF938C01C8EED3E0C12CD12C7601F8017B
:1003C00082818E3008F08E508770806480937C002C
:1003D00080917A00806480937A0080917A0086FD13
:1003E000FCCF8091780060917900762F682F072EDE
:1003F000000C880B990B0E94C20420E030E040E81A
:100400005AE30E94FD0420E030E44CE955E40E94E8
:10041000FD049B01AC01C701B6010E9423066B01DC
:100420007C01219761F620E030E04AE754E40E9425
:100430008F06DF91CF911F910F91FF90EF90DF908A
:10044000CF9008958F929F92AF92BF920F931F9378
:10045000CF93DF93CDB7DEB7A1970FB6F894DEBF89
:100460000FBECDBF19A2423008F44AE08E010F5DE5
:100470001F4F842E912CB12CA12CA50194010E9418
:10048000FA05E62FB901CA01EA3044F5E05DD8016A
:10049000EE938D01232B242B252B79F790E080E020
:1004A000109769F0FD0101900020E9F73197AF0145
:1004B0004A1B5B0BBD018DE391E00E948400A19675
:1004C0000FB6F894DEBF0FBECDBFDF91CF911F9165
:1004D0000F91BF90AF909F908F900895E95CD7CF18
:1004E000009769F0FC0101900020E9F73197AF0116
:1004F000481B590BBC018DE391E00C94840090E003
:1005000080E008950F931F93CF93DF93EC018881D0
:100510009981009759F02A813B812617370730F0DF
:1005200081E0DF91CF911F910F9108958B016F5F53
:100530007F4F0E942608009759F0998388831B8378
:100540000A832C813D81232B59F7FC011082E8CFCF
:1005500080E0E7CFEF92FF920F931F93CF93DF934B
:10056000EC010B811C81C8010E94BB058A3AC1F4D1
:100570007E0182E1E80EF11C25960C1B1D0BC801C3
:100580008C0F9D1F0E94BB058993CE15DF05B9F71F
:1005900081E0DF91CF911F910F91FF90EF9008952F
:1005A00080E0F7CF1F920F920FB60F9211242F9376
:1005B0003F938F939F93AF93BF9380913901909115
:1005C0003A01A0913B01B0913C013091340123E00C
:1005D000230F2D3758F50196A11DB11D209334012D
:1005E0008093390190933A01A0933B01B0933C0171
:1005F0008091350190913601A0913701B091380179
:100600000196A11DB11D8093350190933601A093F1
:100610003701B0933801BF91AF919F918F913F9176
:100620002F910F900FBE0F901F90189526E8230F63
:100630000296A11DB11DD2CF1F920F920FB60F923D
:1006400011242F933F934F935F936F937F938F93D7
:100650009F93AF93BF93EF93FF938DE391E00E943D
:100660004201FF91EF91BF91AF919F918F917F9147
:100670006F915F914F913F912F910F900FBE0F900F
:100680001F9018951F920F920FB60F9211242F935F
:100690008F939F93EF93FF93E0914D01F0914E0163
:1006A0008081E0915301F091540182FD1BC0908143
:1006B000809156018F5F8F7320915701821741F00F
:1006C000E0915601F0E0E35CFE4F958F8093560178
:1006D000FF91EF919F918F912F910F900FBE0F90EF
:1006E0001F9018958081F4CFEDE3F1E01382128220
:1006F00088EE93E0A0E0B0E084839583A683B7837F
:100700008AE091E09183808385EC90E095878487EF
:1007100084EC90E09787868780EC90E0918B808BCB
:1007200081EC90E0938B828B82EC90E0958B848BB4
:1007300086EC90E0978B868B118E128E138E148E22
:10074000EAEDF1E08EE082838CE191E09183808399
:100750008AEA858380E090E8ABEBB4E486839783F4
:10076000A087B18780E090ECADEFB4E482879387F7
:10077000A487B58780E090ECA3E7B4E486879787E9
:10078000A08BB18B80EE90E0948383830895CF9308
:10079000DF93CDB7DEB728970FB6F894DEBF0FBE54
:1007A000CDBF789484B5826084BD84B5816084BDFA
:1007B00085B5826085BD85B5816085BD80916E00FF
:1007C000816080936E001092810080918100826030
:1007D000809381008091810081608093810080916D
:1007E00080008160809380008091B100846080935C
:1007F000B1008091B00081608093B00080917A0058
:10080000846080937A0080917A00826080937A007D
:1008100080917A00816080937A0080917A0080686C
:1008200080937A001092C100E0914D01F0914E0149
:1008300082E08083E0914901F0914A011082E091C9
:100840004B01F0914C018FEC808310925501E091A7
:100850005101F091520186E08083E0914F01F091C7
:100860005001808180618083E0914F01F0915001BF
:10087000808188608083E0914F01F09150018081F8
:1008800080688083E0914F01F091500180818F7DDD
:10089000808380E291E00E94700283E291E00E94F6
:1008A00070024AE067E070E080E090E00E9422027F
:1008B0008AE291E00E9470021A8219821C821B82D5
:1008C0001E821D8270E060E0CE0101960E948202CD
:1008D00029813A8181112EC02115310519F0C901F4
:1008E0000E949D071A8219821E821D821C821B8211
:1008F0000E94D4000D811E8197FD24C08A3091058D
:1009000009F18F8318860F5F1F4FB801CE01019642
:100910000E948202882361F329813A818D819E8120
:10092000BE01695F7F4F820F931F0E94EC081E83F8
:100930000D83DECF1E821D826BE271E0C9010E9431
:10094000EC08D6CF0115110551F410922C018981C4
:100950009A81009709F4B0CF0E949D07ADCF013373
:10096000110510F001E310E069817A81A8018CE2A1
:1009700091E00E94F308F801E45DFE4F1082E7CF9A
:10098000E89409C097FB3EF4909580957095619529
:100990007F4F8F4F9F4F9923A9F0F92F96E9BB27DF
:1009A0009395F695879577956795B795F111F8CF5B
:1009B000FAF4BB0F11F460FF1BC06F5F7F4F8F4FC6
:1009C0009F4F16C0882311F096E911C0772321F0BC
:1009D0009EE8872F762F05C0662371F096E8862F54
:1009E00070E060E02AF09A95660F771F881FDAF7AB
:1009F000880F9695879597F908950E9410050C9495
:100A000081050E94730538F00E947A0520F0952335
:100A100011F00C946A050C94700511240C94B50522
:100A20000E94920570F3959FC1F3950F50E0551FFA
:100A3000629FF001729FBB27F00DB11D639FAA2733
:100A4000F00DB11DAA1F649F6627B00DA11D661F82
:100A5000829F2227B00DA11D621F739FB00DA11DA3
:100A6000621F839FA00D611D221F749F3327A00D5D
:100A7000611D231F849F600D211D822F762F6A2FF9
:100A800011249F5750409AF0F1F088234AF0EE0F5E
:100A9000FF1FBB1F661F771F881F91505040A9F78B
:100AA0009E3F510580F00C946A050C94B5055F3F9C
:100AB000E4F3983ED4F3869577956795B795F795C7
:100AC000E7959F5FC1F7FE2B880F911D969587953F
:100AD00097F9089597F99F6780E870E060E00895BE
:100AE0009FEF80EC089500240A9416161706180646
:100AF0000906089500240A94121613061406050622
:100B00000895092E0394000C11F4882352F0BB0FB2
:100B100040F4BF2B11F460FF04C06F5F7F4F8F4F15
:100B20009F4F089557FD9058440F551F59F05F3F50
:100B300071F04795880F97FB991F61F09F3F79F0FF
:100B400087950895121613061406551FF2CF469581
:100B5000F1DF08C0161617061806991FF1CF869503
:100B60007105610508940895E894BB2766277727E7
:100B7000CB0197F90895F999FECF92BD81BDF89AFE
:100B8000992780B508952F923F924F925F926F926E
:100B90007F928F929F92AF92BF92CF92DF92EF920D
:100BA000FF920F931F93CF93DF93CDB7DEB7CA1B8E
:100BB000DB0B0FB6F894DEBF0FBECDBF09942A88B9
:100BC000398848885F846E847D848C849B84AA8461
:100BD000B984C884DF80EE80FD800C811B81AA81EE
:100BE000B981CE0FD11D0FB6F894DEBF0FBECDBFB9
:100BF000ED010895A1E21A2EAA1BBB1BFD010DC039
:100C0000AA1FBB1FEE1FFF1FA217B307E407F507BC
:100C100020F0A21BB30BE40BF50B661F771F881F98
:100C2000991F1A9469F760957095809590959B012E
:100C3000AC01BD01CF010895EE0FFF1F0590F491A7
:100C4000E02D09945058BB27AA270E943A060C941D
:100C500081050E94730538F00E947A0520F039F46E
:100C60009F3F19F426F40C9470050EF4E095E7FB11
:100C70000C946A05E92F0E94920558F3BA1762078F
:100C800073078407950720F079F4A6F50C94B40552
:100C90000EF4E0950B2EBA2FA02D0B01B901900197
:100CA0000C01CA01A0011124FF27591B99F0593FDB
:100CB00050F4503E68F11A16F040A22F232F342F23
:100CC0004427585FF3CF469537952795A795F04071
:100CD0005395C9F77EF41F16BA0B620B730B840B86
:100CE000BAF09150A1F0FF0FBB1F661F771F881F3E
:100CF000C2F70EC0BA0F621F731F841F48F4879596
:100D000077956795B795F7959E3F08F0B0CF939587
:100D1000880F08F09927EE0F9795879508950E9400
:100D2000A3060C9481050E947A0558F00E94730571
:100D300040F029F45F3F29F00C946A0551110C949E
:100D4000B5050C9470050E94920568F39923B1F3E0
:100D5000552391F3951B550BBB27AA2762177307E1
:100D6000840738F09F5F5F4F220F331F441FAA1F75
:100D7000A9F335D00E2E3AF0E0E832D09150504031
:100D8000E695001CCAF72BD0FE2F29D0660F771FDF
:100D9000881FBB1F261737074807AB07B0E809F0C5
:100DA000BB0B802DBF01FF2793585F4F3AF09E3F4A
:100DB000510578F00C946A050C94B5055F3FE4F397
:100DC000983ED4F3869577956795B795F7959F5F8D
:100DD000C9F7880F911D9695879597F90895E1E0D9
:100DE000660F771F881FBB1F621773078407BA0738
:100DF00020F0621B730B840BBA0BEE1F88F7E09593
:100E000008950F931F93CF93DF938230910510F4D1
:100E100082E090E0E091EE01F091EF0130E020E01F
:100E2000B0E0A0E0309799F42115310509F44AC0EB
:100E3000281B390B24303105D8F58A819B81611537
:100E4000710589F1FB0193838283FE0111C040810A
:100E500051810281138148175907E0F0481759075B
:100E600099F4109761F012960C93129713961C93B5
:100E70003296CF01DF91CF911F910F91089500938A
:100E8000EE011093EF01F4CF2115310551F0421717
:100E9000530738F0A901DB019A01BD01DF01F80118
:100EA000C1CFEF01F9CF9093EF018093EE01CDCF49
:100EB000FE01E20FF31F8193919322503109398390
:100EC0002883D7CF2091EC013091ED01232B41F401
:100ED00020910201309103013093ED012093EC0148
:100EE00020910001309101012115310541F42DB708
:100EF0003EB74091040150910501241B350BE09150
:100F0000EC01F091ED01E217F307A0F42E1B3F0B6B
:100F10002817390778F0AC014E5F5F4F241735076B
:100F200048F04E0F5F1F5093ED014093EC01819309
:100F300091939FCFF0E0E0E09CCFCF93DF930097B9
:100F4000E9F0FC01329713821282A091EE01B09178
:100F5000EF01ED0130E020E01097A1F42081318114
:100F6000820F931F2091EC013091ED012817390772
:100F700009F061C0F093ED01E093EC01DF91CF91B6
:100F80000895EA01CE17DF07E8F54A815B819E01EB
:100F900041155105B1F7E901FB83EA834991599164
:100FA000C40FD51FEC17FD0761F480819181029673
:100FB000840F951FE90199838883828193819B83A4
:100FC0008A83F0E0E0E012968D919C911397009750
:100FD000B9F52D913C911197CD010296820F931F87
:100FE0002091EC013091ED012817390739F630973F
:100FF00051F51092EF011092EE01B093ED01A09324
:10100000EC01BCCFD383C28340815181840F951FF3
:10101000C817D90761F44E5F5F4F88819981480FE7
:10102000591F518340838A819B8193838283211539
:10103000310509F0B0CFF093EF01E093EE019ECFC0
:10104000FD01DC01C0CF13821282D7CFB0E0A0E057
:10105000ECE2F8E00C94C5058C01009751F4CB014B
:101060000E9401078C01C801CDB7DEB7E0E10C9406
:10107000E105FC01E60FF71F9C0122503109E21740
:10108000F30708F49DC0D901CD91DC911197C617E3
:10109000D70798F0C530D10530F3CE0104978617F5
:1010A000970708F3C61BD70B2297C193D1936D9373
:1010B0007C93CF010E949D07D6CF5B01AC1ABD0A7D
:1010C0004C018C0E9D1EA091EE01B091EF01512CB0
:1010D000412CF12CE12C109731F58091EC0190918D
:1010E000ED018815990509F05CC04616570608F011
:1010F00058C08091000190910101009741F48DB793
:101100009EB74091040150910501841B950BE8178F
:10111000F90708F055C0F093ED01E093EC01F901F7
:1011200071836083A0CF8D919C91119712966C90E2
:10113000129713967C901397A815B90559F56C0171
:1011400042E0C40ED11CCA14DB0420F1AC014A19E0
:101150005B09DA011296159780F0628273825183DF
:101160004083D9016D937C93E114F10471F0D701B0
:101170001396FC93EE93129776CF22968C0F9D1FB9
:10118000F90191838083F301EFCFF093EF01E093B6
:10119000EE0169CF4816590608F42C017D01D301F0
:1011A0009ACFCB010E9401077C01009749F0AE0164
:1011B000B8010E94E308C8010E949D07870153CF30
:1011C00010E000E050CFFB01DC0102C001900D9265
:1011D00041505040D8F70895FB01DC0101900D9279
:1011E0000020E1F70895FB01DC014150504048F038
:1011F00001900D920020C9F701C01D92415050404E
:08120000E0F70895F894FFCF18
:101208000000F00180000000000064018400B100CB
:10121800B1012201C000140100000000AA02D1019E
:101228007068003A706F73743A000A0077616974E5
:04123800696E670074
:00000001FF
